:100000000EC013C012C011C010C00FC00EC00DC072
:100010000CC00BC00AC009C008C007C006C011242C
:100020001FBECFEDCDBF02D039C0EACF87E080BD83
:1000300080E898E00FB6F89486BD96BD0FBE88B3F1
:10004000866288BB81E087BB31E08827B5998395BC
:10005000832726B3922F927021FD14C08F5FB29B2D
:1000600017C0811591F384ED80BF913069F087E16D
:100070008DBD8BE08EBD85B7806285BF889580E0A1
:1000800090E0089591E0EBCF83E18DBD89E0F2CF60
:1000900084ED80BF83E08DBD81E0ECCFF894FFCF8D
:00000001FF
