:100000000EC013C012C011C010C00FC00EC00DC072
:100010000CC00BC00AC009C008C007C006C011242C
:100020001FBECFEDCDBF02D036C0EACF87E080BD86
:1000300080E886BD88E086BD88B3866288BB81E0A3
:1000400087BB86B3B29903C081E091E002C080E033
:1000500092E0B19902C08F5F90E0813091F79130CA
:1000600031F484ED80BF83E18DBD89E007C092301B
:1000700069F084ED80BF87E18DBD8BE08EBD85B7D3
:10008000806285BF889580E090E0089594ED90BFF0
:0A00900093E09DBDF3CFF894FFCF7D
:00000001FF
